:020000040800F2
:10000000C0150020A1010008110900080909000815
:100010000D09000899070008790B0008000000008E
:100020000000000000000000000000004909000876
:10003000A5070008000000003D0900084D09000860
:10004000BB010008BB010008BB010008BB010008A0
:10005000BB010008BB010008BB010008BB01000890
:10006000BB010008BB010008BB010008BB01000880
:10007000BB010008BB010008BB010008BB01000870
:10008000BB0100089D070008BB010008BB01000878
:10009000BB010008BB010008BB010008BB01000850
:1000A000BB010008BB010008BB010008BB01000840
:1000B000BB010008BB010008BB010008BB01000830
:1000C000BB010008BB010008BB010008BB01000820
:1000D000BB010008E10A0008BB010008BB010008E1
:1000E000BB010008BB010008BB010008BB01000800
:1000F000BB010008BB010008BB010008BB010008F0
:10010000BB01000841090008BB010008BB01000851
:10011000BB010008BB010008BB010008BB010008CF
:10012000BB010008BB010008BB010008BB010008BF
:10013000BB010008BB010008BB010008BB010008AF
:10014000BB010008BB010008BB010008BB0100089F
:10015000BB010008BB010008BB010008BB0100088F
:10016000BB010008BB010008BB010008BB0100087F
:10017000BB010008BB010008BB0100080000000033
:10018000BB010008BB010008DFF810D000F064FAE2
:1001900000480047F14A0008AFF30080C015002076
:1001A0000648804706480047FEE7FEE7FEE7FEE711
:1001B000FEE7FEE7FEE7FEE7FEE7FEE75909000877
:1001C0008901000840EA01039B0703D009E008C940
:1001D000121F08C0042AFAD203E011F8013B00F80C
:1001E000013B521EF9D27047D2B201E000F8012B58
:1001F000491EFBD270470022F6E710B513460A46A7
:1002000004461946FFF7F0FF204610BD421C10F8C7
:10021000011B0029FBD1801A704730B5044600202D
:10022000034600E05B1C934203D2E05CCD5C401BC4
:10023000F8D030BD00F0004230F000400AD0C10DCF
:1002400001F56071C0F3160042EA0151C20840078F
:100250001143704700200146704730B50B460146F8
:1002600000202022012409E021FA02F59D4205D355
:1002700003FA02F5491B04FA02F52844151EA2F1FF
:100280000102F1DC30BD2DE9F05F05460020924609
:100290009B4688460646814640241BE02846414648
:1002A0004746224600F0F9F953465A46C01A914192
:1002B00010D311461846224600F0E0F92D1A67EBDC
:1002C00001084F4622460120002100F0D7F917EB24
:1002D00000094E41201EA4F10104DFDC48463146EE
:1002E0002A464346BDE8F09F2DE9FE4F804681EA4D
:1002F0000300C00F0C46009021F0004123F00045A0
:10030000B8EB0200A94105D24046214690461C4662
:100310000B46024623F00040104347D0270DC7F399
:100320000A00C3F30A510290401A019040286BDA88
:10033000C3F3130040F4801B0098924620B10023C1
:10034000D2EB030A63EB0B0B01985946C0F1400254
:10035000504600F093F906460D4650465946019A1C
:1003600000F0ABF910EB08006141002487EA11525C
:1003700084EAE7731A4340D0009A62B3019A012AD3
:100380004FEA075215DC001B61EB02014FF00042FF
:1003900002EA0752CDE90042001C41F580113246C5
:1003A0002B4600F0ABF903B0BDE8F08F4046214684
:1003B000F9E7001B61EB0201001C41F580130018F6
:1003C0005B412018A2F5001747EB030140EAD57006
:1003D000B6196D4111E06D084FEA360645EAC07561
:1003E0004FEA0752001B61EB0201001C41F580112E
:1003F00049084FEA30000019514132462B4603B0FC
:10040000BDE8F04F00F06BB90098012240000023D6
:10041000D0EB020263EBE073009821464FEAE074F0
:10042000B8EB000061EB0401E9E783F000435BE710
:1004300081F0004158E72DE9FE4F81EA030404F002
:10044000004421F0004100944FF0000B23F00043E2
:1004500050EA01045ED052EA03045BD0C3F30A54AD
:10046000C1F30A552C44A4F2F3340194A0FB0254C6
:10047000C1F3130141F48011C3F3130343F4801358
:1004800001FB024400FB034E840A970A44EA8154AC
:1004900047EA8357A4FB076802958D0A05FB078589
:1004A0004FEA932C04FB0C542705029D4FEA065893
:1004B00047EA1637B5EB08056EEB070C870E920E70
:1004C00047EA811742EA8312A7FB0201B6EB0B0150
:1004D00064EB00042B0D43EA0C335E1844EB1C5014
:1004E000DA465146E7FB0201C5F313044FEA0B332A
:1004F00043EA14534FEA0432019C43EA0603A4F191
:100500000C040294009CCDE900B400F0F7F803B0AD
:10051000BDE8F08F00200146F9E72DE9F04D81EAB2
:10052000030404F0004B21F0004514464FF0000A8C
:1005300023F0004150EA050220D054EA01021DD008
:10054000C5F30A570246C5F31303C1F31300C1F301
:100550000A5640F4801543F48013A7EB0608101BDD
:10056000D64608F2FD3873EB050002D308F1010806
:1005700001E092185B41B8F1000F03DA0020014658
:10058000BDE8F08D00204FF48011064684460EE051
:10059000171B73EB050705D3121B63EB050306431B
:1005A0004CEA010C49084FEA300092185B4150EACE
:1005B0000107EDD152EA030012D082EA040083EA77
:1005C0000501084305D0101BAB4106D201220023D0
:1005D00006E000224FF0004302E06FF001025310EA
:1005E0001AEB06004CEB085110EB0A0041EB0B0133
:1005F000BDE8F04D00F073B8C1F30A52C1F3130126
:1006000040F2FF3341F480119A4202DA00200146A1
:10061000704740F233439A42A2F2334202DC524224
:1006200000F03BB800F02AB830B5041E71F10004A8
:1006300004DB4FF00044404264EB0101141E73F1EF
:10064000000405DB1C464FF00043524263EB0403F9
:10065000994208BF904230BD064C074D06E0E06865
:1006600040F0010394E8070098471034AC42F6D3F9
:10067000FFF78EFDD0AC0008F0AC0008202A04DBA8
:10068000203A00FA02F1002070479140C2F12003A5
:1006900020FA03F3194390407047202A04DB203AE4
:1006A00021FA02F00021704721FA02F3D040C2F192
:1006B00020029140084319467047202A06DBCB17D9
:1006C000203A41FA02F043EAE07306E041FA02F30D
:1006D000D040C2F12002914008431946704710B53E
:1006E000141E73F1000408DA401C41F10001921855
:1006F0005B411A4301D120F0010010BD2DE9F04DFE
:1007000092469B4611B1B1FA81F202E0B0FA80F252
:1007100020329046FFF7B2FF04460F4640EA0A0037
:1007200041EA0B0153465A46084313D0114653EA97
:10073000010019D0C8F140025046FFF7AEFF054650
:100740000E46504659464246FFF798FF084305D0EB
:10075000012004E020463946BDE8F08D0020054325
:1007600046EAE0762C4337430A986305E40AA0EB97
:1007700008000022FD0A44EA47540A3002D500204E
:100780000146E9E7010510196941DDE9084500194D
:100790006941BDE8F04DA2E700BFFEE710B504F0E7
:1007A0006BFC10BD00BFFEE710B55248008820F07A
:1007B0000100504908800846008820F00E000830EB
:1007C00008800846008820F0700010300880084635
:1007D000008820F0800008800846008820F4E0604F
:1007E00000F5807008800846008820F400600880CA
:1007F0000846008820F4805008800846008820F4CD
:10080000C04000F5005008800846008820F40040F1
:1008100000F500400880384807F0A6FF3549097800
:10082000C907090C334A1278C2F3420241EA023185
:10083000304A1278C2F3021241EA42212D4A12785C
:10084000C2F3C01241EA02212A4A1288C2F30222EC
:1008500041EA4211274A1288C2F3C02241EA02113A
:10086000244A1288C2F3003241EAC201214A1288A6
:10087000C2F3413241EA42011E4A128841EAD230B3
:1008800008F068F91B480078C007000C194909787E
:10089000C1F3420140EA013016490978C1F302115F
:1008A00040EA412013490978C1F3C01140EA012010
:1008B00010490988C1F3022140EA41100D49098815
:1008C000C1F3C02140EA01100A490988C1F300318F
:1008D00040EAC10007490988C1F3413140EA4100BB
:1008E0000449098840EAD13204A1064804F056FAC6
:1008F00010BD0000DC0000200034014030782534B9
:10090000580000000010014000BFFEE700BFFEE7F6
:1009100000BFFEE710B5002807DA0A07140E054AE3
:1009200000F00F031B1FD45403E00A07130E024A02
:10093000135410BD18ED00E000E400E000BFFEE736
:1009400010B507F0ADF810BD00BFFEE710B502F01E
:100950009FF904F02FF810BD1CB55D48006840F405
:1009600070005B4908605B48006840F0010059492D
:10097000086000BF5748006800F002000028F9D066
:1009800054480830006800F00C0008286ED100BF01
:100990000020019002E00198401C0190019850282D
:1009A000F9D34C48083000680090009820F0F0001F
:1009B0000090009840F0800000904649083100986F
:1009C00008600020019002E00198401C019001980D
:1009D0005028F9D33F48083000680090009820F074
:1009E000F0000090009840F09000009039490831E4
:1009F000009808600020019002E00198401C0190DE
:100A000001985028F9D333480830006800900098C6
:100A100020F0F0000090009840F0A00000902D49D8
:100A20000831009808600020019002E00198401C05
:100A3000019001985028F9D32648083000680090AA
:100A4000009820F0F0000090009840F0B000009076
:100A500020490831009808600020019002E00198C8
:100A6000401C019001985028F9D300BF1948083064
:100A7000006820F00300174908310860C82000F022
:100A800013FD1448006814490840124908600846DC
:100A9000006820F48020086000200E4908310860BA
:100AA00000BF0C480830006800200028F9D10B482E
:100AB0000849091D0860002006490C31086008F04B
:100AC00021FC00214FF0006004F02AFA1CBD000058
:100AD00088ED00E000380240FFFFF6FE10300024F1
:100AE00070B51F491F4809F027F8002837D01D4866
:100AF00008F07EFF02211C4802F087FB02211A4801
:100B000003F054F8C0F50074ACB1B4F5007F12D80E
:100B10002546B5F5007F01D340F2FF154FF4007173
:100B20001248FFF768FB2A4611491048FFF74AFBB5
:100B30000120104908704FF400710D48FFF75BFB6E
:100B400020220221084802F006FC4FF40072022124
:100B5000054803F023F80221034802F066FB70BD4C
:100B60000403040000100140006402400807002054
:100B7000780F0020AE00002000BFFEE70FB4084B46
:100B800010B504A902AA039800F000F9044602A9CE
:100B9000002000F097FC204610BC5DF814FB00001C
:100BA000C5140008014B024A00F0F0B8AD4300083C
:100BB000200100207CB50C001D461646014601D0E0
:100BC000601E00E00020CDE90010064B6A46294671
:100BD000304600F0DBF8002C02D0009A00211170A2
:100BE0007CBD00009314000802E008C8121F08C171
:100BF000002AFAD170477047002001E001C1121F9E
:100C0000002AFBD1704700002DE9FF5F82B0002170
:100C1000DDE90430020DDDF840B0034318D044F69E
:100C20001050A2F2FF3242431514119801281FD030
:100C3000A5EB0B00401C5FEA000A4FF000064E4F88
:100C4000DFF83891B046504615D5CAF1000413E0DC
:100C5000119801244AA3012801D16FEA0B010298DF
:100C6000119AC0E90031C0E9024206B0BDE8F09F28
:100C7000CBF10000DFE704460021404A491842EB6F
:100C80000450CDE9001012E0E00707D032463B46A1
:100C900040464946FFF7CFFB8046894632463B46F1
:100CA00010461946FFF7C7FB06460F466410002C96
:100CB000EAD1DDE90401DDE90023BAF1000F06DA2B
:100CC000FFF7B9FB42464B46FFF7B5FB05E0FFF7E0
:100CD00024FC42464B46FFF720FC04460E46002209
:100CE000284BFFF7A1FC03D84FF0FF30014607E087
:100CF0000022254B20463146FFF7F6FAFFF77CFC31
:100D0000102409E0002C0ADB0A220023FFF7BBFABB
:100D1000039B30321A55641E50EA0102F2D1641C62
:100D2000039AC4F111031444119A012A03D0012239
:100D300008430DD10AE0084304D000204FF0110B06
:100D4000119072E7A3EB0B056D1E0DE05B4504DD12
:100D50004FF0000205F1010504E003DA4FF0000254
:100D6000A5F10105002AECD002981199C0E90231E1
:100D7000C0E9004579E70000000014400000F03FA2
:100D8000300000000000F0430000E03F2DE9FF4F7D
:100D900095B09A46884606460025EEE1252877D18B
:100DA00000242746F94A0121039400E0044316F881
:100DB000013F203B01FA03F01042F7D130782A2896
:100DC00011D06FF02F033078A0F13002092A16D825
:100DD000039A44F0020402EB820203EB4202104445
:100DE000761C0390EFE758F8042B0392002A03DAED
:100DF000504244F40054039044F00204761C3078CE
:100E00002E2816D116F8010F44F004042A280DD01C
:100E10006FF02F023078A0F13003092B09D807EBCF
:100E2000870302EB4303C718761CF3E758F8047BEB
:100E3000761C30786C280FD006DC4C2817D0682838
:100E40000DD06A2814D104E0742810D07A280FD16C
:100E50000DE044F400140AE044F4801401E044F48A
:100E600040147278824202D104F58014761C761CFC
:100E7000307866280BD013DC582877D009DC00289E
:100E800075D04528F6D04628F4D047281AD193E1EA
:100E900018E0632835D0642879D0652812D18BE119
:100EA000702873D008DC6728F1D069286FD06E28CD
:100EB0000DD06F2806D1ACE073282CD0752874D0E3
:100EC000782853D05246179990476D1C54E1C4F3CB
:100ED0000250022809D003280DD0D8F800100428A9
:100EE0000DD00D6008F1040846E1D8F80010EA17AB
:100EF000C1E90052F6E7D8F800100D80F2E70D7056
:100F0000F0E718F8041B8DF8001000208DF80100A0
:100F1000EB46012003E058F804BB4FF0FF306107B7
:100F20004FF0000102D40DE009F101018946B942F8
:100F30000FDA8145F8DB1BF809100029F4D108E02D
:100F400009F1010189468142FADB1BF809100029E9
:100F5000F6D103985346A0EB090721463846179A65
:100F600000F080FA284400EB090507E044E008E1BE
:100F70000DE01BF8010B524617999047B9F1010992
:100F8000F7D2534621463846179AF2E039E00A2153
:100F9000C4F302524FF0000B0091022A06D058F819
:100FA000040BC117032A09D00AE023E008F1070067
:100FB00020F00702F2E80201904605E000B2C117F6
:100FC000042A01D140B2C117002906DA0A460021DD
:100FD000404261EB02012D2202E0220504D52B22C2
:100FE0008DF80420012203E0E20701D02022F7E778
:100FF000914657E00A2100E010214FF0000B0091CC
:101000000BE010214FF0000B44F00404082700917E
:1010100003E008204FF0000B0090C4F30252022AB4
:1010200005D058F8040B0021032A08D008E008F185
:10103000070020F00702F2E80201904603E080B2C8
:10104000042A00D1C0B24FF0000922072AD5327815
:10105000702A07D0DDF800C08CF0100C5CEA0B0C95
:1010600005D00EE040228DF80420012208E050EA6D
:10107000010306D030238DF804308DF805200222BC
:101080009146009B83F0080353EA0B030AD150EA10
:10109000010201D1620705D530228DF804204FF0FE
:1010A00001097F1E3278582A04D039A20C920CAA6A
:1010B00002920BE03BA2F9E75B46009AFFF7E3F8E8
:1010C0000C9B9B5C029A521E0292137050EA010222
:1010D000F2D1029804A9081A00F1200B600702D58A
:1010E00024F4803400E001275F4502DDA7EB0B000C
:1010F00000E0002000EB0B01009003984944401AE7
:101100000390E00306D453462146179A039800F053
:10111000A9F90544002706E001A85246C05D1799C9
:1011200090476D1C7F1C4F45F6DBE0030CD5534602
:101130002146179A039800F095F9054404E0302001
:101140005246179990476D1C0099481E009000293F
:10115000F5DC08E00298029952460078491C029199
:10116000179990476D1CBBF10001ABF1010BF1DC4D
:101170005BE100F065F90544761C307800287FF4C7
:101180000DAE19B02846BDE8F08F00000928010017
:1011900030313233343536373839616263646566ED
:1011A00000000000303132333435363738394142AF
:1011B0004344454600000000600700D4062708F1BC
:1011C000070020F00700F0E80223804603F0004CFF
:1011D0005FEA0C0001D097A009E0200501D596A098
:1011E00005E0E00701D095A001E0AFF24C001390BC
:1011F000307823F0004365280CD006DC452809D060
:1012000046281DD047287FD13BE0662818D06728A4
:101210007AD136E00021112F01DB112000E0781C8B
:10122000CDE9000104A90CA8FFF7EEFCDDE90D01F2
:101230000C9A4FF0000B07F10109109200914EE05B
:101240004FF000400097CDE9011004A90CA8FFF76A
:10125000DBFCDDE90D020C9B0F994FF0000B914672
:101260001093009211B9791C00EB0109B7EB09004A
:1012700003D4C0F1FF3B07F10109A9EB070001907E
:1012800042E0012F00DA01270021112F01DD11209A
:1012900000E03846CDE9000104A90CA8FFF7B4FC32
:1012A000DDE90D010C9A00914FF0000BB946109248
:1012B00021070FD4009A4A4503DA914601E0A9F1CB
:1012C0000109B9F1010F05DD109AA9F10101515C85
:1012D0003029F4D0B84202DA10F1040F03DA012108
:1012E000CDE9011010E0002803DC8344A9EB0001E4
:1012F00002E0411C494500DD8946A0EB0B00401C83
:1013000001904FF000400290200705D40198484515
:1013100002DB4FF0FF30019000208DF84B00029867
:101320000DF14B07B0F1004F25D002200C902B207F
:101330000D90029800280CDA404202902D200D906A
:1013400007E00A210298FEF788FF3031029007F883
:10135000011D0C99481E0C900029F2DC029800280F
:10136000EFD1791E0D980870307800F0200040F021
:10137000450007F8020D11A8C01BC01D029013986C
:10138000007800B1012000EB0901019801EBE07148
:10139000029801440398401A401E0390E00306D4CB
:1013A00053462146179A039800F05CF805441398B9
:1013B000007818B15246179990476D1CE00323D569
:1013C00053462146179A039800F04CF805441BE059
:1013D000BBF1000F07DB0098584504DD1098179902
:1013E00010F80B0001E01799302052469047019801
:1013F0000BF1010B401E05F10105019004D12E20D7
:101400005246179990476D1CB9F10001A9F10109E5
:10141000DEDC05E017F8010B5246179990476D1C6A
:101420000299481E02900029F4DC53462146179A7F
:1014300003989EE62D0000002B0000002000000015
:101440002DE9F041044600251E461746880404D4C1
:1014500005E039462020B0476D1C641EF9D52846AA
:10146000BDE8F0812DE9F041044600251E46904676
:10147000C80301D5302700E02027880404D505E003
:1014800041463846B0476D1C641EF9D52846BDE874
:10149000F0814A68002A06D00A68531C0B6010705D
:1014A0004868401E4860704708B50021009102E07E
:1014B0000099491C009100EB8001009AB2EB410FAA
:1014C000F6D308BD0A68531C0B60107070472DE9F5
:1014D000F04104460D4616461F4694F83A00D8B926
:1014E0006FB194F8390033462A464021D4F808C039
:1014F000E04710B10120BDE8F0810020FBE794F83F
:10150000390033462A460021D4F808C0E04708B124
:101510000120F0E70020EEE794F83A00012811D10D
:101520003846216A88478046B8F1000F01D0012073
:10153000E1E7314628466269904708B10120DAE7C1
:101540000020D8E70120D6E7816841F008018160DA
:1015500000BF816801F008010029FAD1816841F0DB
:101560000401816000BF816801F004010029FAD103
:10157000704730B5012902D0022920D10FE06AB1AD
:10158000102A0BD8C36A23F47003C362C36A541EC3
:101590004FF4700505EA04542343C36210E06AB1B6
:1015A000042A0BD8836B23F440138363836B541E8C
:1015B0004FF4401505EA04542343836300E000BF61
:1015C00000BF30BD0649096821F4E021054AC2F890
:1015D00004131146D1F804130143C2F804137047F1
:1015E000042301400020014021B1826842F40062DE
:1015F000826003E0826822F4006282607047816842
:1016000041F4807181607047816841F400718160AC
:101610007047816801F0010119B9816841F0010149
:1016200081607047012902D0022912D108E0836845
:1016300023F040538360836843EA0273836009E0C8
:10164000836823F440138360836843EA0253836012
:1016500000E000BF00BF7047012902D0022910D16D
:1016600007E0836823F070638360836813438360BB
:1016700008E0836823F470238360836813438360E6
:1016800000E000BF00BF7047F0B51D4606290CDA28
:10169000436B01EB81071F26BE40B34301EB81067C
:1016A00002FA06F63343436322E00C290EDA036B99
:1016B0008E1F06EB86071F26BE40B3438E1F06EB28
:1016C000860602FA06F63343036311E010290FDAA7
:1016D000C36AA1F10C0606EB86071F26BE40B34382
:1016E000A1F10C0606EB860602FA06F63343C36246
:1016F0000A2A0CDA046902EB42070726BE40B4430B
:1017000002EB420605FA06F63443046111E0122AA0
:101710000FDCC468A2F10A0606EB46070726BE40A6
:10172000B443A2F10A0606EB460605FA06F6344370
:10173000C460F0BD012902D002290AD104E0826808
:1017400042F08042826005E0826842F4800282605A
:1017500000E000BF00BF7047AAB101F480731BB165
:10176000436843F48073436001F480631BB14368B2
:1017700043F48063436001F00203CBB1836843F01C
:101780000203836014E001F480731BB1436823F407
:101790008073436001F480631BB1436823F480636A
:1017A000436001F002031BB1836823F002038360EE
:1017B000704700000649096821F01F01054AC2F878
:1017C00004131146D1F804130143C2F804137047FF
:1017D000042301400020014010B5034B034A0721B8
:1017E000034800F03DFB10BD211D0008F11D00085D
:1017F0000000002000B589B040F6024004F0BAFEB7
:1018000041F2081004F0B6FE40F6164004F0B2FEB5
:101810004FF44030FFF7D6FE012300220321384861
:1018200002F019FF0021374801F042FD36480090D0
:101830000120019035480290002003904FF4006091
:1018400004900020069001200790400408906A460A
:1018500000212C4802F08AF800221146294801F0A4
:10186000F4FC0021274801F013FD0021254801F078
:10187000DCFC0020FFF79EFF0122022122484C38A9
:10188000FFF76AFF012211021F484C38FFF764FF7F
:1018900000211D484C38FFF7A7FE012211461A48C7
:1018A0004C38FFF766FE01230A22002116484C3807
:1018B000FFF7EAFE0022012113484C38FFF7CCFE67
:1018C0000022012110484C38FFF7ACFE0E484C387E
:1018D000FFF79AFE0C484C38FFF791FE0A484C3847
:1018E000FFF797FE012001F0C9F907484C38FFF7D0
:1018F0002BFE012104484C38FFF71CFF09B000BD46
:1019000000080240006402404C200140CC0000204E
:1019100000B589B04FF4406004F02CFE40F615404D
:1019200004F028FE41F21D0004F024FE41F2040000
:1019300004F020FE102300220321304802F08BFE29
:10194000012205212E4801F006FD042205212C4824
:1019500001F001FD08220521294801F0FCFC1022BC
:101960000521274801F0F7FC20220521244801F039
:10197000F2FC07220521224801F067FC2148009073
:1019800021480290402006900120079001900020FD
:1019900003904FF4006004904FF440300890002012
:1019A00005906A460521164801F0E0FF052114481C
:1019B00001F03BFC1348083801F0FCF80022114606
:1019C0001048083801F031F900210E48083801F0BC
:1019D0001FF9002211460B48083801F03AF900219E
:1019E0000848083801F007F900210648083801F0D6
:1019F000F5F807F03DFE09B000BD00000000024010
:101A00000060024008740040CE00002000B587B09E
:101A100040F6014004F0AEFD41F20E0004F0AAFDD4
:101A200040F6154004F0A6FD4FF4604205211B4826
:101A300002F096FD4FF4604300220221174802F0A5
:101A40000AFE4FF4604302220021144802F02AFEED
:101A50004FF4805300220121104802F0FCFD4FF4A6
:101A60008053022200210D4802F01CFE002001904C
:101A70004FF48270009000200290032005904FF4F4
:101A800000700390102006900020049069460448DE
:101A900007F0F0F806F02AFF07B000BD000402408E
:101AA0000038004000B587B040F6044004F062FD05
:101AB00041F20D1004F05EFD40F6164004F05AFDB0
:101AC00064220521184802F04BFD64230022022104
:101AD000154802F0C0FD642302220021124802F0E2
:101AE000E1FD1023002201210F4802F0B4FD102374
:101AF000022200210C4802F0D5FD002001904FF495
:101B00008270009000200290012005904002039016
:101B100010200690002004906946044807F0AAF8B7
:101B2000FEF742FE07B000BD001002400034014045
:101B300010B5002441F21C0004F01CFD04F096F9DD
:101B400000F010F805480068C0F30120044908605F
:101B500000F026F804F08CFB204610BD70380240DF
:101B6000D800002010B54FF4E05004F043FC4FF4CF
:101B7000E05004F051FC4FF4807004F031FDFF2080
:101B8000054908607F200549086041F60F4004F0D0
:101B9000F1FC04F027FE10BDD4000020D00000208E
:101BA0002DE9F041002723245925502610480068CC
:101BB00010490881104800684881252008700620D7
:101BC000C870042048703020887000200861C86008
:101BD000084604714571867104F074FD08B97F1ED2
:101BE00003E043F2F020054908603846BDE8F08183
:101BF000D000002078110020D400002050280040A0
:101C000000B589B040F6164004F0B4FC022140480B
:101C100001F04EFB002006903E4802900020039009
:101C20004FF4007007903C48009001200190002084
:101C300004904FF4403008906A460221344801F085
:101C400095FE0221324801F013FB042202213048A4
:101C500001F0FBFA02212E4801F0E7FA4FF4406050
:101C600004F088FC41F2041004F084FC4FF400728C
:101C700007212A4802F074FC4FF4806207212748AC
:101C800002F06EFC4FF4007301220221234802F09F
:101C9000E2FC4FF4007302220021204802F002FD12
:101CA0004FF48063012202211C4802F0D4FC4FF45F
:101CB000806302220021194802F0F4FC1648001F3C
:101CC00007F0A0FE4FF4E1311348001F07F01CFE9F
:101CD00004211148001F07F04CFF08210E48001F87
:101CE00007F04FFF40210C48001F07F0F9FE0A489B
:101CF000001F07F0FFFE00221146252003F082F8A6
:101D00004FF441710448001F07F009FF09B000BDFE
:101D100000640240780F00200410014000000240DF
:101D200070B504460D4604B970BD35B1012D05D01E
:101D3000022D04D0032D0DD105E00CE00BE020783E
:101D400000F066F807E02078012802D1642102F053
:101D5000CBFD00E000BF00BF00BFE5E710B540F6D7
:101D6000044004F007FC40F6014004F003FC4FF48B
:101D7000406004F0FFFB4AF680230122002108485E
:101D800002F069FC01231A460021064802F063FCB8
:101D900001231A460021044802F05DFC10BD00003A
:101DA00000100240000402400000024001460729E2
:101DB00001D2012070470020FCE7000010B5044666
:101DC0002046FFF7F3FF08B9002010BD064A52F87D
:101DD0002410064A52F8240002F034FC08B901200D
:101DE000F3E70020F1E70000549C0008389C00084D
:101DF00010B504460CB9002010BD2078FFF7DEFFB7
:101E0000FAE710B507F0AAFA044600F085F810BD0D
:101E100010B50446072C1FD2DFE804F004090D11A9
:101E200015191A006421002002F05EFD15E0012062
:101E300002F0F6FD11E0022002F0F2FD0DE00320B9
:101E400002F0EEFD09E0042002F0EAFD05E000BF2B
:101E5000052002F0E5FD00E000BF00BF10BD00005E
:101E60002DE9F04706460F46904699461C48066005
:101E70001C4807701C48C0F800801C48C0F800903F
:101E80001748006810B11848006830B9002014499C
:101E9000086014490870BDE8F087002519E0104873
:101EA000006800EB0514204600F022F8824684F812
:101EB00002A000206070E0706060A060A08908B996
:101EC0001420A081E08910B94FF47A70E081681C79
:101ED000C5B2044800788542E1DB00BFDBE70000C3
:101EE000E4000020E8000020EC000020F0000020CA
:101EF00010B504460748006800B10CB9002010BDB9
:101F0000204604490968884708B10120F7E7002006
:101F1000F5E70000EC0000202DE9F04105462548DA
:101F2000006810B12448006808B9BDE8F0810027B6
:101F30003AE02048006800EB07142046FFF7D8FF7E
:101F40000646A078B04201D0A67065606078B042C5
:101F500019D06068281AA189884214D36670607805
:101F600038B1A5600020E0700021204600F028F87C
:101F700009E00121204600F023F8E07818B9022199
:101F8000204600F01DF8607860B1E07850B9A06894
:101F9000281AE189884205D30120E07003212046F8
:101FA00000F00EF8781CC7B2044800788742C0DB06
:101FB00000BFBAE7E4000020EC000020E8000020A9
:101FC00070B504460D460448006820B129462046F5
:101FD000014A1268904770BDF00000202DE9F041E1
:101FE0002DED028B96B004A805F042F804461D2C96
:101FF0007ED156A15C4802F0D1FE9DF84800082829
:1020000023D2DFE800F004090E222213181D57A185
:10201000554802F0C3FE1DE05FA1534802F0BEFE2A
:1020200018E068A1504802F0B9FE13E06EA14E48D6
:1020300002F0B4FE0EE074A14B4802F0AFFE09E0DE
:102040007CA1494802F0AAFE04E084A1464802F0BF
:10205000A5FE00BF00BF0C98401C85024FF400761F
:1020600004F0B2FF00EE100AF8EE400A9FED811A6C
:1020700080EE810ADFED7F0A80EE201A11EE107AE1
:102080003846FEF7D7F841EC180B04F09DFF804668
:102090008DED008B424678A1334802F07FFE324638
:1020A0007EA1314802F07AFE2A4683A12E4802F032
:1020B00075FE9DF8102087A12B4802F06FFEBDF839
:1020C00012208AA1284802F069FE0598000E8DF8BA
:1020D00008000598000C8DF809000598000A8DF895
:1020E0000A000598C0B28DF80B009DF8180000E0BA
:1020F00021E08DF80C0000208DF80D0002AA82A1CD
:10210000194802F04BFE9DF8190000F00F039DF8EE
:102110001900020981A1144802F040FE079A86A125
:10212000114802F03BFE9DF82400421C8AA10E4893
:1021300002F034FE04E022468CA10B4802F02EFE91
:1021400016B0BDEC028BBDE8F08100000D0A2A2A12
:102150002A205344204361726420496E666F202A0E
:102160002A2A0D0A00000000001001404361726439
:1021700020547970653A205374616E6461726420F2
:1021800043617061636974792053442043617264D0
:102190002056312E310D0A0043617264205479704B
:1021A000653A205374616E646172642043617061AA
:1021B0006369747920534420436172642056322E3F
:1021C000300D0A004361726420547970653A2048EA
:1021D00069676820436170616369747920534420A2
:1021E000436172640D0A0000436172642054797087
:1021F000653A204D756C74696D6564696120436151
:1022000072640D0A0000000043617264205479700A
:10221000653A204869676820436170616369747931
:10222000204D756C74696D656469612043617264E9
:102230000D0A00004361726420547970653A2048A9
:10224000696768205370656564204D756C74696DAD
:102250006564696120436172640D0A0043617264C0
:1022600020547970653A20556E6B6E6F776E0D0A4B
:1022700000000000000080440D0A232320446576FE
:102280006963652073697A652069732025644B4210
:102290002028252E32664742292323000D0A2323B6
:1022A00020426C6F636B2073697A65206973202507
:1022B00064422023230000000D0A232320426C6F78
:1022C000636B20636F756E7420697320256420230F
:1022D000230000004D616E756661637475726572EE
:1022E0002049443A20307825580D0A004F454D2F9B
:1022F0004170706C69636174696F6E2049443A2063
:10230000307825580D0A000050726F647563742090
:102310004E616D653A2025730D0A000050726F649E
:10232000756374205265766973696F6E3A2025640F
:102330002E25640D0A00000050726F6475637420CE
:1023400053657269616C204E756D6265723A20301A
:1023500078253038580D0A0043534420566572736F
:10236000696F6E3A2025642E300D0A000D0A466111
:10237000696C656420746F20676574205344206322
:1023800061726420696E666F726D6174696F6E2C24
:10239000206572726F7220636F64653A2025640D48
:1023A0000A00000070B504460D46607801232A46F5
:1023B00004F1300100F0D3FE08B1032070BD94F8A1
:1023C0002E1294F82F0241EA00204AF65521884245
:1023D00001D00220F2E794F86900010694F8680041
:1023E00041EA004194F8670041EA002094F8661041
:1023F000084320F07F400E49884201D10020DDE7EC
:1024000094F88500010694F8840041EA004194F8AC
:10241000830041EA002094F88210084320F07F40B6
:102420000349884201D10020C8E70120C6E7000027
:1024300046415400024600E0521C107810B110785A
:102440008842F9D1107870472DE9F74F88B0089885
:1024500000680190019800783038079007980928A3
:102460000AD8019840783A2806D10198801C01903A
:1024700008990198086001E000200790079818B1BA
:102480000B200BB0BDE8F08FD049079851F82040E1
:10249000099804600CB90C20F3E7207878B16078D3
:1024A00000F085FE804608F0010040B90A9820B18E
:1024B00008F0040008B10A20E3E70020E1E700206B
:1024C000207007986070607800F003FE804608F086
:1024D000010008B10320D4E70A9820B108F00400F5
:1024E00008B10A20CDE74FF0000B59462046FFF710
:1024F00059FF054600BF012D21D14FF0000ABAF166
:10250000000F03D0AAF1010000F0FF0A4FF4DF70C2
:1025100000EB0A1104F130000F18387978B1F87A1D
:102520000106B87A41EA0041787A41EA0020397A16
:1025300040EA010B59462046FFF734FF0546032DBC
:1025400001D101209DE70DB10D209AE73B20015DEF
:1025500094F83C0041EA0020B0F5007F01D00D2046
:102560008FE74620015D94F8470041EA0029B9F160
:10257000000F0ED194F85700010694F8560041EA76
:10258000004194F8550041EA002094F8541040EAC4
:102590000109C4F81C904020065DE670012E03D0AE
:1025A000022E01D00D206CE709FB06F93D20005DED
:1025B0000646A07016B1701E304008B10D2060E7CD
:1025C0004120015D94F8420041EA00202081207AF8
:1025D00000F00F0008B10D2053E74320015D94F88F
:1025E000440041EA00200690069870B994F8530020
:1025F000010694F8520041EA004194F8510041EA82
:10260000002094F85010084306903E20015D94F895
:102610003F0041EA00200290029808B90D2030E7FF
:1026200002984844218900EB11100590DDE905016D
:10263000814201D20D2024E7DDE90510401AA1787E
:10264000B0FBF1F00490049808B90D2019E70125BA
:1026500040F6F6710498884200D302254FF6F671D1
:102660000498884200D303250498801CA061059833
:102670005844A062029858442062032D16D1208944
:1026800008B10D20FDE694F85F00010694F85E00A5
:1026900041EA004194F85D0041EA002094F85C10A2
:1026A00008436062A0698000039014E0208908B9A3
:1026B0000D20E6E6206A48446062022D02D1A0693E
:1026C000400007E0207E00F00100A16901EB41011C
:1026D00000EB51000390E169039800F2FF10B1EBA9
:1026E000502F01D20D20CCE64FF0FF3020610020AA
:1026F000E060032D5CD1607194F8601094F8610083
:1027000041EA0020584460616078012304F13001FF
:10271000626900F024FDE8BB94F82E1294F82F02B1
:1027200041EA00204AF65521884241D13320005D1C
:1027300001063220005D41EA00413120005D41EA9E
:10274000002094F8301008432149884230D194F891
:102750001702010694F8160241EA004194F81502A6
:1027600041EA002094F8141208431A4988421FD104
:1027700094F81F02010694F81E0241EA004194F801
:102780001D0241EA002094F81C120843E06094F80E
:102790001B0200E00CE0010694F81A0241EA004135
:1027A00094F8190241EA002094F8181208432061B5
:1027B000257009480088401C80B207490880E080E5
:1027C0000020E062207100BF5BE6000018010020DD
:1027D00052526141727241611C0100200246891E01
:1027E0009069801E884201D8002070479378906AD3
:1027F00001FB0300F9E7000070B51D25084C00E05F
:10280000641E802005F02EFF08B9002CF8D114B901
:102810001325284670BD034805F01EFF2846F9E73A
:10282000A0860100FF07C0002DE9F04705460C46D1
:10283000207820F04000401E00EB800101EBC00634
:1028400000274FF0010800BF1A48C05D205C1949FD
:10285000C95D2144497840EA0129B8F1000F10D040
:10286000484601F0F7FC8046FF2E07D23146761C21
:1028700035F8110001F0EEFC404508D00020BDE81D
:10288000F0874FF6FF70814501D00020F7E7781CF4
:1028900007460D28D8D3207800F0400038B1B8F1B1
:1028A000000F04D035F8160008B10020E7E701203A
:1028B000E5E7000039A700082DE9F04704468946FE
:1028C000B9F1000F06D1E76817B1A069B84211D875
:1028D00001270FE04946204601F0CEFD0646022EB4
:1028E00002D20120BDE8F087A069B04201D930468C
:1028F000F8E74F463D4600BF6D1CA069A84204D8CA
:102900000225BD4201D90020ECE72946204601F00E
:10291000B3FD064606B909E0701C08B1012E01D1CD
:102920003046DFE7BD42E7D10020DBE700BF6FF0B4
:1029300070422946204603F0A3FA8046B8F1000F02
:1029400008D1B9F1000F05D02A464946204603F0C8
:1029500097FA8046B8F1000F09D1E5602069401C64
:1029600068B12069401E20610120607107E0B8F164
:10297000010F02D14FF0FF3000E00120054628464C
:10298000B0E700002DE9F34F83B082460498D0F8F9
:1029900000B001E00BF1010B9BF800002F28F9D0EB
:1029A0009BF800005C28F5D0DAF81C9000252E4634
:1029B00000BF3046761C1BF80040202C03DB2F2C78
:1029C00001D05C2C00D11CE0FF2D03D3062005B004
:1029D000BDE8F08FE4B20121204601F015FC044669
:1029E0000CB90620F3E7802C06DA21466BA0FFF72E
:1029F00021FD08B10620EAE728466D1C29F81040A1
:102A0000D7E700BF0BEB060104980160202C01DA28
:102A1000042000E00020074608E0681E39F8104056
:102A2000202C02D02E2C00D002E06D1E002DF4D1FF
:102A300000BF0DB90620CAE7002029F815000B22B7
:102A40002021DAF8180002F053F9002600E0761C85
:102A500039F816002028FAD039F816002E28F6D0BA
:102A60000EB147F0030700E06D1E25B1681E39F86E
:102A700010002E28F8D14FF00008CDF8088008206B
:102A8000019000BF3046761C39F8104004B955E07B
:102A9000202C03D02E2C04D1AE4202D047F00307E5
:102AA000F0E7DDE90110884201D2AE4216D101986B
:102AB0000B2802D147F0030740E0AE4201D047F0B7
:102AC0000307AE4200D939E02E46082002900B20C1
:102AD00001904FEA88604FEA1068D3E7802C0BDB47
:102AE0000021204601F090FB04461CB1A4F18000B7
:102AF0002D490C5C47F0020700BF24B121462BA0F2
:102B0000FFF798FC18B15F2447F003070FE0412C52
:102B100004DB5A2C02DC48F0020808E0612C06DBDA
:102B20007A2C04DC48F00108A4F1200084B2DAF821
:102B300018300298411C02911C54A3E700BFDAF838
:102B400018000078E52803D10520DAF8181008707D
:102B50000198082803D14FEA88604FEA106808F00E
:102B60000C000C2803D008F00300032801D147F023
:102B7000020707F0020058B908F00300012801D14C
:102B800047F0100708F00C00042801D147F00807AF
:102B9000DAF81800C772002019E70000222A3A3C30
:102BA0003E3F7C7F0000000046A700082B2C3B3DE9
:102BB0005B5D000010B504460748204440B940F66C
:102BC0001D0003F0FBFC40F61D0003F0E5FC00E0F7
:102BD00000BF00BF10BD0000008CFFBF21B902681C
:102BE00042F48052026005E0012903D1026842F0FC
:102BF00080520260704721B9026842F0010202600F
:102C000005E0012903D1026842F480320260704776
:102C100021B9026842F00402026005E0012903D1F3
:102C2000026842F480220260704739B9036823F0D9
:102C30003803036003681343036009E0012907D1E7
:102C4000036823F460130360036843EA02430360EC
:102C5000704739B9036823F0C00303600368134366
:102C6000036009E0012907D1036823F440030360EE
:102C7000036843EA024303607047000003490860A9
:102C800000BF024909680029FBD17047B00000204D
:102C900006480068401C054908600548006820B1E6
:102CA00003480068401E024908607047B4000020D5
:102CB000B00000202DE9F04704460021204600F036
:102CC000BAF9074617B13846BDE8F0874FF0FF095B
:102CD000CA4600BF2169206802F026F8074607B1FE
:102CE00054E065692E780EB904274FE0E87A00F0C9
:102CF0003F08E52E05D008F0080028B1B8F10F0F05
:102D000002D04FF0FF093AE0B8F10F0F1CD1E06993
:102D1000A0B306F0400030B195F80DA026F04006B3
:102D2000B146E08820844E450AD1687B504507D1E2
:102D30002946E069FFF778FD10B1A9F1010000E034
:102D4000FF2000F0FF091AE0B9F1000F05D1284675
:102D500006F0DAF9504500D118E04FF0FF094FF6C0
:102D6000FF702084A069C07A00F0010030B90B2206
:102D70002846A16901F09CFF00B907E0FFE70021A8
:102D8000204600F006F80746002FA3D000BF3846C3
:102D90009AE72DE9F0410446884600BFE088401CD0
:102DA00086B20EB1206910B90420BDE8F08106F0AA
:102DB0000F0000286FD12069401C2061E06828B90D
:102DC00020680089B04266DC0420EEE72068807845
:102DD000401E00EA161000285DD1E168206801F06D
:102DE0004BFB0546012D01D80220DEE7681C08B91F
:102DF0000120DAE720688069A84246D8B8F1000FC0
:102E000001D10420D1E7E1682068FFF755FD0546B0
:102E10000DB90720C9E7012D01D10220C5E7681CC3
:102E200008B90120C1E70021206801F07DFF08B149
:102E30000120BAE7216801F130004FF4007200214F
:102E400001F056FF29462068FFF7C8FC2168C862D8
:102E5000002710E00120216808710021206801F09E
:102E600063FF08B10120A0E72068C06A401C216808
:102E7000C862781CC7B220688078B842EADC206853
:102E8000C06AC01B2168C86200BFE560294620688F
:102E9000FFF7A4FC2061E6802068303006F00F01C7
:102EA00000EB4110606100207FE72DE9F04F85B015
:102EB0000446D4F81880D4F81CB00C22414601A86E
:102EC00001F009FF00BF9DF80F0000F0010030B3D2
:102ED000002088F80B00E06101270DE03B465A46D0
:102EE00001A9404601F074FA2046FFF7E3FE0546CB
:102EF00005B103E0781C87B2642FEFDB00BF642FBD
:102F000003D1072005B0BDE8F08F042D01D028467D
:102F1000F8E79DF80F0088F80B00C4F81CB09DF886
:102F20000F0000F0020070B1002601E0701C86B2B4
:102F30003BF816000028F9D106F119000D2190FB8D
:102F4000F1F086B200E001260021204600F073F87F
:102F500005460DB12846D5E700200746049000BF7E
:102F60002169206801F0E0FE054605B119E06069BD
:102F700090F80090B9F1E50F02D0B9F1000F08D137
:102F80000FB9E0880490781C80B20746B04201D1A6
:102F900007E0002701212046FFF7FBFE0546002D34
:102FA000DED000BF4DBB012E27DD2046049900F086
:102FB00042F805460DBBA06906F0A6F80090701E09
:102FC00086B200BF2169206801F0AEFE054605B15A
:102FD00012E0F2B26169E069009B01F057F901204B
:102FE0002168087100212046FFF7D3FE05461DB970
:102FF000701E80B2061EE5D100BFD5B921692068D8
:1030000001F092FE0546A5B9D4F814A020220021B3
:10301000504601F06DFE0B225046A16901F05BFEA7
:10302000A069C07A00F018008AF80C00012021681D
:103030000871284666E72DE9F04104460E46E68011
:10304000A568012D03D020688069A84202D802201B
:10305000BDE8F0812DB920680078032801D12068EF
:10306000456A65B9E56020680089B04201DC02204C
:10307000EEE72068406A00EB1610206120E020682F
:103080008078070112E02946206801F0F5F905462D
:10309000681C08B90120DBE7022D03D32068806992
:1030A000A84201D80220D3E7F01B86B2BE42EADA7A
:1030B000E56029462068FFF791FB00EB16102061C0
:1030C0002068303006F00F0100EB411060610020F5
:1030D000BEE730B593B0054600200090002D39D1F1
:1030E00004F0BAFC04461D2C04D101A803F0C0FF73
:1030F000044602E0012013B030BD1D2C05D1BDF8FF
:10310000480004F0A3F9044601E00120F3E7684613
:1031100004F00CFA0446009800F0007008B100BFFB
:10312000FEE71D2C05D14FF4006003F085FE044638
:1031300001E00120DFE71D2C04D1002005F0A6F9F5
:10314000044601E00120D6E71D2C01D10020D2E782
:103150000120D0E70120CEE70346002070472DE98B
:10316000F04107460C4615461E464FF01C0814B9A0
:103170000420BDE8F0810EB90420FAE787B9012EDA
:1031800006D169027202204603F0BAFB804607E0CE
:10319000690233464FF40072204604F019FD804660
:1031A000B8F11D0F01D10020E3E70120E1E701465E
:1031B00009B9002070470120FCE72DE9F0410746DE
:1031C0000C4615461E464FF01C0814B90420BDE8F5
:1031D000F0810EB90420FAE787B9012E06D1690201
:1031E0007202204603F098FC804607E069023346ED
:1031F0004FF40072204604F039FE8046B8F11D0FEE
:1032000001D10020E3E70120E1E710B501EB410225
:10321000D30000F11002D25822F0010301EB410269
:10322000D40000F11002135110BD10B501EB4102A2
:10323000D30000F11002D25842F0010301EB410229
:10324000D40000F11002135110BD30B5134601EB4C
:103250004104E50000F11004625922F0606242EA84
:10326000436201EB4104E50000F11004625130BDFE
:1032700010B501EB4102D30000F11002D25822F444
:10328000807301EB4102D40000F11002135110BD14
:1032900010B501EB4102D30000F11002D25842F404
:1032A000807301EB4102D40000F11002135110BDF4
:1032B00010B501EB4102D30000F11002D25822F008
:1032C000010301EB4102D40000F11002135100236D
:1032D00001EB4102D40000F11002135101EB410255
:1032E000D40000F11402135101EB4102D40000F1AB
:1032F0001802135101EB4102D40000F11C021351DA
:1033000001EB4102D40000F120021351212301EB13
:103310004102D40000F12402135104290CDA01EB1C
:1033200041025300C1F3400203EB82033D229A4065
:1033300083681A4382600DE00A1FD1B201EB41029B
:103340005300C1F3400203EB82033D229A40C3685D
:103350001A43C26010BD10B504290CDA01EB410319
:103360005C00C1F3400304EB830302FA03F38468B7
:10337000234383600DE00B1FD9B201EB41035C00D6
:10338000C1F3400304EB830302FA03F3C46823434D
:10339000C36010BD30B50346002004290FDA01EBED
:1033A00041046500C1F3400405EB840402FA04F40F
:1033B0001D682C400CB1012012E0002010E00C1F11
:1033C000E1B201EB41046500C1F3400405EB840464
:1033D00002FA04F45D682C400CB1012000E00020EA
:1033E00030BD30B572B901EB4103DC0000F11003D0
:1033F0001B5923F0200401EB4103DD0000F1100311
:103400005C510DE001EB4103DC0000F110031B599E
:1034100043F0200401EB4103DD0000F110035C5197
:1034200030BD30B5802A0DD001EB4103DC0000F146
:1034300010031B59934301EB4104E50000F1100414
:1034400063510CE001EB4103DC0000F124031B5944
:10345000934301EB4104E50000F12404635130BDC6
:1034600030B5802A0DD001EB4103DC0000F11003E0
:103470001B59134301EB4104E50000F110046351B3
:103480000CE001EB4103DC0000F124031B59134362
:1034900001EB4104E50000F12404635130BD10B597
:1034A00004290CDA01EB41035C00C1F3400304EB97
:1034B000830302FA03F38468234383600DE00B1F48
:1034C000D9B201EB41035C00C1F3400304EB830379
:1034D00002FA03F3C4682343C36010BDF0B503468A
:1034E0000020002500260C46042970DA082A3CD06A
:1034F00004DC012A07D0042A6AD11DE0102A4DD02D
:10350000202A7FD165E001EB41074FEA470CC1F368
:1035100040070CEB870702FA07F7D3F800C007EA69
:103520000C0601EB41074FEAC70C03F1240757F8DB
:103530000C7007F0800566E001EB41074FEA470C8D
:10354000C1F340070CEB870702FA07F7D3F800C076
:1035500007EA0C0601EB41074FEAC70C03F110071D
:1035600057F80C7007F002054DE001EB41074FEAF8
:10357000470CC1F340070CEB870702FA07F7D3F8B3
:1035800000C007EA0C0601EB41074FEAC70C03F144
:10359000100757F80C7007F0040534E001EB410701
:1035A0004FEA470CC1F340070CEB870702FA07F715
:1035B000D3F800C007EA0C0601EB41074FEAC70C3D
:1035C00003F1100757F80C7007F008051BE01BE02B
:1035D00018E001EB41074FEA470CC1F340070CEB41
:1035E000870702FA07F7D3F800C007EA0C0601EBD9
:1035F00041074FEAC70C03F1100757F80C7007F0AA
:10360000100500E000BF8FE0271FFCB2082A3CD065
:1036100004DC012A07D0042A7ED11DE0102A4DD0F7
:10362000202A7FD163E004EB44074FEA470CC4F340
:1036300040070CEB870702FA07F7D3F804C007EA44
:103640000C0601EB41074FEAC70C03F1240757F8BA
:103650000C7007F0800566E004EB44074FEA470C66
:10366000C4F340070CEB870702FA07F7D3F804C04E
:1036700007EA0C0601EB41074FEAC70C03F11007FC
:1036800057F80C7007F002054DE004EB44074FEAD1
:10369000470CC4F340070CEB870702FA07F7D3F88F
:1036A00004C007EA0C0601EB41074FEAC70C03F11F
:1036B000100757F80C7007F0040534E004EB4407DA
:1036C0004FEA470CC4F340070CEB870702FA07F7F1
:1036D000D3F804C007EA0C0601EB41074FEAC70C18
:1036E00003F1100757F80C7007F008051BE004EB16
:1036F00044074FEA470CC4F340070CEB870702FA74
:1037000007F7D3F804C007EA0C0601EB41074FEABC
:10371000C70C03F1100700E004E057F80C7007F045
:10372000100500E000BF00BF16B10DB1012000E0A0
:103730000020F0BD30B532B101EB4104E50000F1ED
:103740002004635105E001EB4104E50000F11C0495
:10375000635130BD70B501EB4104E50000F1240474
:103760006459156A45F004052C4301EB4105EE0050
:1037700000F12405AC5101EB4104E60000F118040E
:103780001568A55101EB4104E60000F11C04D56861
:10379000A55101EB4104E60000F11404D56AA551DE
:1037A00001EB4104E50000F110046359414C234052
:1037B000156954682C43156B2C43956A2C43956905
:1037C0002C43D5692C43234301EB4104E50000F170
:1037D00010046351946874B901EB4104E50000F1F1
:1037E0001004645944F4007501EB4104E60000F153
:1037F0001004A5511FE09468012C0ED101EB410487
:10380000E50000F11004645924F4007501EB410453
:10381000E60000F11004A5510DE001EB4104E500C4
:1038200000F11004645944F4004501EB4104E60042
:1038300000F11004A551546974B901EB4104E5008D
:1038400000F11004645944F4806501EB4104E60082
:1038500000F11004A5510DE001EB4104E50000F179
:103860001004645924F4806501EB4104E60000F182
:103870001004A551546A74B901EB4104E50000F14C
:103880001004645944F4807501EB4104E60000F132
:103890001004A5510DE001EB4104E50000F1100416
:1038A000645924F4807501EB4104E60000F1100432
:1038B000A55170BD3F871CFE30B58DB004460D4646
:1038C000012203212748FFF746FD04220321254852
:1038D000FFF741FD082203212248FFF73CFD10229B
:1038E00003212048FFF737FD202203211D48FFF761
:1038F00032FD03211B48FFF788FC03211948FFF71D
:10390000D7FC19480090039400200A900B900120E6
:103910000290002005904FF48050019080000490A8
:103920004FF440300C904FF4001007908000069048
:1039300003200890012009906A4603210948FFF7F7
:1039400009FF012203210748FFF74BFD0422032151
:103950000448FFF77AFC03210248FFF766FC0DB02C
:1039600030BD000000640240802C014070B501EBC6
:103970004104E50000F12404645924F0040501EB3E
:103980004104E60000F12404A55101EB4104E600E6
:1039900000F118041568A55101EB4104E60000F19F
:1039A0001C049568A55101EB4104E60000F11404E4
:1039B000D569A55101EB4104E50000F110046359FC
:1039C0003F4C2340146944EA8404156A2C439569EA
:1039D0002C43234301EB4104E50000F11004635143
:1039E000546874B901EB4104E50000F11004645916
:1039F00044F4007501EB4104E60000F11004A55108
:103A00001FE05468012C0ED101EB4104E50000F1E8
:103A10001004645924F4007501EB4104E60000F140
:103A20001004A5510DE001EB4104E50000F1100484
:103A3000645944F4004501EB4104E60000F1100430
:103A4000A551D46874B901EB4104E50000F11004FC
:103A5000645944F4806501EB4104E60000F1100470
:103A6000A5510DE001EB4104E50000F1100464599B
:103A700024F4806501EB4104E60000F11004A55137
:103A8000546974B901EB4104E50000F11004645974
:103A900044F4807501EB4104E60000F11004A551E7
:103AA0000DE001EB4104E50000F11004645924F439
:103AB000807501EB4104E60000F11004A55170BDD2
:103AC0003F87FCFF002101600121416000218160EE
:103AD0000121C16000210161012141610021816159
:103AE000C16101627047000030B58DB004460D46DB
:103AF000012203212748FFF72EFC04220321254839
:103B0000FFF729FC082203212248FFF724FC10229A
:103B100003212048FFF71FFC202203211D48FFF747
:103B20001AFC03211B48FFF770FB03211948FFF71C
:103B3000BFFB19480090039440200A9000200B908E
:103B400001200290002005904FF4805001908000E9
:103B500004904FF440300C904FF400100790800018
:103B6000069001200990032008906A460321094825
:103B7000FFF7F0FD012203210648FFF732FC042283
:103B800003210448FFF761FB03210248FFF74DFBC7
:103B90000DB030BD00640240802C014010B501EB37
:103BA0004103DC0000F114031A5110BD024601EB81
:103BB0004100C30002F11400C058704770B50446BC
:103BC000204600F0BEF905460DB9002020602846C9
:103BD00070BD00000246012A01DB0B207047074838
:103BE00050F822300BB10020187009B10020087085
:103BF000024840F822100020F0E7000018010020E1
:103C00002DE9F743ADF50C7D0546164600202860EA
:103C100006F01F0626F0010283A98DA8FEF714FC0A
:103C2000074680A88990CDF828D227B983A88D9916
:103C300000F06CFB0746889C0FB904B9062706F014
:103C40001C00002858D04FB1042F03D183A8FFF7E0
:103C50002CF9074646F00806889C09E0E07A00F057
:103C6000110008B1072703E006F0040000B108279F
:103C7000002F40D106F0080000283CD000F06EFC78
:103C8000804684F80E804FEA1821E1734FEA18410C
:103C900021744FEA186161740020E07220770021DE
:103CA0006177A177E177A17EE07E41EA0021227D64
:103CB000607D42EA002041EA00490020A076002110
:103CC000E17620756175012083990871B9F1000FC3
:103CD00011D08398D0F82C804946839802F08CFC50
:103CE000074647B9A9F101008399C8604146839806
:103CF00001F01AF807460EE06FB9E07A00F0100004
:103D000008B1042707E006F0020020B1E07A00F0D5
:103D1000010000B1072747B906F0080008B146F0D6
:103D200020068398C06AE8612C62F7B9AE71A17E63
:103D3000E07E41EA0021227D607D42EA002041EAE6
:103D400000402861E07F0106A07F41EA0041607FDA
:103D500041EA0020217F0843E8600020A860A861B4
:103D6000839828608398C088A88038460DF50F7D19
:103D7000BDE8F0832DE9FF4F83B0044615469A460F
:103D8000DDF810B00020CAF80000A188206805F016
:103D900000FF0290029818B1029807B0BDE8F08FBA
:103DA000A07900F0800008B10220F6E7A07900F0C9
:103DB000010008B90720F0E7D4E90210401A00908A
:103DC0000098854200D9009DB6E02089C0F3080024
:103DD00000287DD120688078401EA16800EA51202B
:103DE00000F0FF09B9F1000F1DD1A06810B92069DA
:103DF000019004E06169206800F03EFB01900198A9
:103E0000022805D2A07940F08000A0710220C4E70A
:103E10000198401C28B9A07940F08000A0710120D1
:103E2000BBE70198606161692068FEF7D7FC064630
:103E30002EB9A07940F08000A0710220ADE74E4479
:103E40004FEA5528B8F1000F2DD009EB0800216882
:103E50008978884203D920688078A0EB090808F0A7
:103E6000FF032168487832465946FFF778F928B1B0
:103E7000A07940F08000A07101208EE7A07900F0C9
:103E8000400068B1A069801B404509D2A169891B27
:103E90000BEB41204FF4007204F1240100F01BFFF2
:103EA0004FEA48273EE0A069B04227D0A07900F051
:103EB0004000A0B121684878012304F12401A269DF
:103EC000FFF77BF938B1A07940F08000A07100E0E5
:103ED00015E0012061E7A07920F04000A071216881
:103EE00048780123324604F12401FFF738F928B15C
:103EF000A07940F08000A07101204EE7A6612089E2
:103F0000C0F30800C0F50077AF4200D92F462089E2
:103F1000C0F3080204F1240011183A46584600F094
:103F2000DAFE00BFBB44A0683844A060DAF80000A5
:103F30003844CAF80000ED1B002D7FF446AF002086
:103F40002BE72DE9F0410446A188206805F021FE09
:103F50000746002F4FD1A07900F0200000284AD05A
:103F6000A07900F0400078B121684878012304F17D
:103F70002401A269FFF721F910B10120BDE8F08109
:103F8000A07920F04000A071E169206800F0CCFE2B
:103F90000746002F2FD1256AE87A40F02000E8720A
:103FA000207B2877A089010A6977E068010CA9774E
:103FB000E068010EE977207CA876208A010AE9767C
:103FC0002069000C28752069010E697500F0C6FA99
:103FD0000646AE75310AE975310C2976310E6976DF
:103FE000A07920F02000A0710120216808712068CC
:103FF00005F09AF807463846C0E72DE9FF4F83B031
:10400000044615469B46049801900020CBF800001A
:10401000A188206805F0BDFD0290029818B10298B1
:1040200007B0BDE8F08FA07900F0800008B1022051
:10403000F6E7A07900F0020008B90720F0E7E06891
:104040002844E168884200D20025CDE02089C0F3F1
:104050000800002877D120688078401EA16800EA17
:10406000512000F0FF0ABAF1000F2AD1A06858B918
:10407000D4F81080B8F1000F0BD100212068FEF7B2
:104080001BFC8046206104E061692068FEF714FC97
:104090008046B8F1000F00D1A9E0B8F1010F05D1B9
:1040A000A07940F08000A0710220B9E708F101007A
:1040B00028B9A07940F08000A0710120B0E7C4F8D1
:1040C0001480A07900F0400090B121684878012365
:1040D00004F12401A269FFF770F828B1A07940F03B
:1040E0008000A07101209BE7A07920F04000A07122
:1040F00061692068FEF772FB06462EB9A07940F090
:104100008000A07102208BE756444FEA5529B9F18F
:10411000000F2FD00AEB090021688978884203D963
:1041200020688078A0EB0A0909F0FF03216848782D
:1041300032460199FFF741F830B1A07940F0800094
:10414000A07101206CE72CE0A069801B48450ED2CD
:10415000A069801B019A02EB40214FF4007204F128
:10416000240000F0B8FDA07920F04000A0714FEAD3
:1041700049272DE0A069B04212D0D4E9020188425B
:104180000ED2216848780123324604F12401FEF75B
:10419000E6FF28B1A07940F08000A07101203FE740
:1041A000A6612089C0F30800C0F50077AF4200D9AE
:1041B0002F462189C1F3080204F1240150183A4620
:1041C000019900F088FDA07940F04000A07100BF87
:1041D000019838440190A0683844A060DBF80000E2
:1041E0003844CBF80000ED1B002D7FF42FAF00BF4B
:1041F000D4E90201884201D9A068E060A07940F0CA
:104200002000A07100200BE710B50246802A01DAD9
:1042100010461BE051B1FF2A01DD002304E0A2F1AA
:1042200080030B4C34F8133018460FE0002007E0F1
:10423000074B33F81030934200D103E0431C98B28F
:104240008028F5DB00BF00F18003D8B210BD00006C
:10425000C6A700080246002100E0491C094830F8C2
:10426000110020B1074830F811009042F5D10548FF
:1042700030F8110018B1044830F8110070471046AA
:10428000FCE70000C6A80008A6AA0008F0B504468E
:104290001D464D730F27CF7200270F738F76BC46D4
:1042A00081F81BC0571E07EB870C0CEBC7060027D5
:1042B00038463B4600BF4FF6FF77B84203D037463B
:1042C000761C34F81700DFF840C01CF803C001F872
:1042D0000C000712DFF830C01CF803C08C448CF8C7
:1042E000017008B94FF6FF705F1C3B460D2FE2D3FB
:1042F0004FF6FF77B84202D034F816700FB942F08B
:1043000040020A70F0BD000039A700082DE9F34112
:104310000446019800782F2803D0019800785C2883
:1043200002D10198401C01900020A0600198007803
:10433000202807D200212046FEF77DFE06460020F9
:1043400060612FE000BF01A92046FEF71BFB064677
:1043500006B126E02046FEF7ADFC0646A069C77A06
:1043600046B1042E00D01CE000BF07F0040000B9E5
:10437000052616E007F0040000B112E06569E87A4E
:1043800000F0100008B905260BE0A97EE87E41EA9E
:1043900000212A7D687D42EA002041EA0040A060B9
:1043A000D1E700BF3046BDE8FC81000070B504468F
:1043B0000D46E1B2054805F020FB00BF0721034888
:1043C00005F09DFB0028F9D0204670BD001001408B
:1043D0002DE9FC4780468A4617461C460B2251466B
:1043E000404600F078FC052C0ADD00BF601000EBB1
:1043F000C43137F8022B881884B238880028F5D1E8
:10440000072500BF2046E11704EB11710911A4EB49
:104410000111303101F0FF09B9F1390F03DD09F164
:10442000070000F0FF0928466D1E0DF80090204699
:10443000E11704EB1171C1F30F14002CE2D17E20BF
:104440000DF80500002600E0761CAE4203D218F8F5
:1044500006002028F8D100BF082D04D228466D1C84
:104460001DF8000000E020203146761C08F801000D
:10447000082EF1D3BDE8FC872DE9F04105460C4636
:10448000022C02D3A869A04202D80120BDE8F08125
:104490002878012804D002282CD003285AD13DE0E6
:1044A000274607EB5707286A00EB5721284600F0FC
:1044B0003BFC00B14EE0C7F3080105F1300010F8F5
:1044C00001807F1C286A00EB5721284600F02CFC55
:1044D00000B13FE0C7F3080105F13000405C48EA55
:1044E000002804F0010010B14FEA1810CEE7C8F31D
:1044F0000B00CBE7286A00EB1421284600F014FCDF
:1045000000B127E040F2FF1000EA440105F130005D
:104510000E183078717840EA0120B7E7286A00EB7E
:10452000D411284600F000FC00B113E040F2FF1067
:1045300000EA840105F130000E18F0780006B17829
:1045400040EA0140717840EA01203178084320F0C8
:1045500070409BE700BF4FF0FF3097E700207047A7
:10456000F0B503461C6A5D6A00200DE00126864016
:1045700016403EB187000F26BE40B443860001FAC4
:1045800006F63443461CB0B20828EFD3082011E0E9
:104590000126864016405EB1A0F10806B7000F263E
:1045A000BE40B543A0F10806B60001FA06F6354351
:1045B000461CB0B21028EBD31C625D62F0BD816274
:1045C0007047816170470AB1816100E08162704784
:1045D00010B54FF4F8520C211848FFF7C1FF042220
:1045E0000C211748FFF7BCFF4FF470630122022132
:1045F000124800F030F84FF47063012200210F4898
:1046000000F050F84FF48053002202210B4800F0D4
:1046100022F84FF4805301220021084800F042F8AC
:10462000042301220221064800F015F80423012288
:104630000021034800F036F810BD000000080240D9
:10464000000C02400246002013690B400BB1012010
:1046500000E000207047F0B504460D46164621687C
:10466000E268002019E0012787401F409FB14FEA10
:10467000400C032707FA0CF7B943470005FA07F780
:1046800039434FEA400C032707FA0CF7BA434700B7
:1046900006FA07F73A43471CB8B21028E3D3216063
:1046A000E260F0BDF0B50C461546012C03D146681A
:1046B0001E43466002E046689E43466082680021D1
:1046C0000DE001268E401E403EB14F000326BE4045
:1046D000B2434E0005FA06F632434E1CB1B2102921
:1046E000EFD38260F0BD0A460021016821F48061A9
:1046F00011430160704700002DE9F05F04460E464B
:104700009346022001F0BEFD07463148B7FBF0F9A1
:10471000B9F13C0F01D34FF03C09D4F804A02AF0C2
:104720003F0A4AEA090AC4F804A02A4886421ED869
:104730002748B7FBF0F000F10108B8F13C0F02D3B5
:104740003C20206207E0B8F1020F02D8022020626C
:1047500001E0C4F820807000B7FBF0F5042D00D212
:104760000425E069C5F30B010843E0612EE01A4817
:1047700086422BD84FF4967009FB00F04FF47A7103
:10478000B0FBF1F0401C2062BBF1000F08D106EB3A
:104790004600B7FBF0F5E06920F48040E06109E0F5
:1047A00006EBC60000EB0610B7FBF0F5E06940F43D
:1047B0008040E061C5F30B0008B945F00105E069F0
:1047C00040F40040E061E0692843E061BDE8F09F0B
:1047D00040420F00A0860100801A060010B5044672
:1047E0001348204430B1B0F5806F0CD0B0F5006FA5
:1047F0001BD111E040F6150001F0E0FE40F6150077
:1048000001F0CAFE12E040F6160001F0D7FE40F6B5
:10481000160001F0C1FE09E040F6170001F0CEFEDF
:1048200040F6170001F0B8FE00E000BF00BF10BD69
:1048300000ACFFBF0A460021416821F4006111432A
:10484000416070470A460021416821F480511143BC
:1048500041607047016841F001010160704710B587
:1048600040F20152914202D1426982690AE000EBB2
:104870009112126801F01F040123A3409A4300EB38
:1048800091131A6010BD30B5024602EB91131B68FC
:1048900001F01F050124AC4023400BB1012000E0D2
:1048A000002030BD12F1020F02D121F0010101E020
:1048B00041F001010161704730B50C4600210168EB
:1048C00021F0020121430160C3F3090342EA030519
:1048D000856030BD016841F48071016070470168F6
:1048E00041F40071016070472DE9F04105460E4624
:1048F000284600F051F800B10EB9BDE8F08100F093
:1049000052F8074605EB4500144901EB8004207876
:1049100050B1002020701248415D284600F0CEF8CA
:10492000384600F0A3F8E8E70120207060700C48DA
:10493000405DA070A07808B9012000E00020E07080
:10494000A6800020E080A060E178284600F0B6F85C
:10495000384600F08BF800BFCFE7000024010020AC
:104960007000002010B500F085F800240CE0002055
:1049700004EB4401064A02F821000648015D204686
:1049800000F09CF8601CC4B2062CF0DB10BD0000E7
:1049900024010020700000200146062901D20120D8
:1049A00070470020FCE700BFEFF31081084672B6A5
:1049B0007047000070B500252CE005EB4500174955
:1049C00001EB8004207800B922E0E088401CE08000
:1049D000E088A188884200DA1AE00020E080E078D0
:1049E00008B9012000E00020E070E178284600F0DE
:1049F00065F8607800B10BE0A068401EA060A06878
:104A000028B900202070A178284600F057F800BF90
:104A1000681CC5B2062DD0DB70BD0000240100204B
:104A200070B504462046FFF7B7FF00B970BDFFF729
:104A3000BAFF0546002004EB44010A4A02F82100AF
:104A40000948005D08B9012000E00020064908552A
:104A50000846015D204600F031F8284600F006F8CF
:104A600000BFE3E7240100207000002000B962B617
:104A70007047000010B540F6034001F07BFD4FF495
:104A80007C53002201210848FFF7E5FD4FF47C53D9
:104A9000022200210448FFF705FE4FF47C51024832
:104AA000FFF78DFD10BD0000000C024001460629F5
:104AB00001D2012070470020FCE7000070B50446D9
:104AC0000D462046FFF7F2FF00B970BD0DB1012081
:104AD00000E000200246044850F824100348FFF785
:104AE00072FD00BFF1E70000709C0008000C02405E
:104AF00004F00CFCFFF736FFFDF730F9FCF786FFFA
:104B0000FDF77EF829A12D4800F048F92CA12B488B
:104B100000F044F9FCF7C6FF2FA1284800F03EF949
:104B200032A1264800F03AF9FCF764FE34A123488C
:104B300000F034F937A1214800F030F9FCF7E8FE25
:104B400039A11E4800F02AF93CA11C4800F026F9C2
:104B5000FCF7EEFF3EA1194800F020F902F016FD27
:104B6000FCF73AFE3FA1154800F018F900F098FD57
:104B700068B942A1114800F011F900F005FA44A209
:104B80000021084600F0E0FE01F036F803E043A102
:104B90000A4800F003F904F0E7FB02F00FFE01F011
:104BA00077FE01E001F086FEFCE70000424F4F5423
:104BB0003A2073746172740D0A0000000010014005
:104BC000424F4F543A206764333020696E69742E27
:104BD0002E2E0D0A00000000424F4F543A20676409
:104BE000333020646F6E650D0A000000424F4F5451
:104BF0003A2061646320696E69742E2E2E0D0A00BE
:104C0000424F4F543A2061646320646F6E650D0A11
:104C100000000000424F4F543A2064616320696EE7
:104C200069742E2E2E0D0A00424F4F543A206461B3
:104C30006320646F6E650D0A00000000424F4F5400
:104C40003A2072746320696E69742E2E2E0D0A004C
:104C5000424F4F543A2072746320646F6E650D0AA0
:104C600000000000424F4F543A206F6C6564206989
:104C70006E69742E2E2E0D0A00000000424F4F5414
:104C80003A206F6C656420646F6E650D0A00000049
:104C9000424F4F543A20737461727400424F4F5424
:104CA0003A206F6C6564206661696C65640D0A006A
:104CB000F0B503461C460D46002000BF161EA2F1AB
:104CC000010207D014F8017B15F801CBA7EB0C0605
:104CD000301EF3D0F0BD70B503460C4603E014F867
:104CE000015B03F8015B151EA2F10102F7D170BD53
:104CF00030B5034601E003F8011B141EA2F10102C6
:104D0000F9D130BD30B5034607E013F8014B11F877
:104D1000015BAC4201D0002030BD101EA2F10104A5
:104D2000A2B2F2D10120F7E72DE9F04104460D4689
:104D3000E66AAE422FD0207908B36078012332466C
:104D400004F13001FEF739FA10B10120BDE8F0811D
:104D500000202071D4E907100844B0420FD9E77849
:104D60000AE0E069064460780123324604F130012C
:104D7000FEF723FA781EC7B2012FF2DC00BF55B14F
:104D8000607801232A4604F13001FEF7E8F908B102
:104D90000120DBE7E5620020D8E700000FB430B562
:104DA000ADF5017D054686A800904FF4007101A87D
:104DB000009B859AFBF7FEFE0446002000901049F8
:104DC000088012E001A80E4A1288815C284604F08F
:104DD00014FE00BF0721284604F091FE0028F9D0F8
:104DE00007480088401C0649088005480088A04202
:104DF000E8DB20460DF5017D30BC5DF814FB0000BA
:104E0000AC0000202DE9F04F03460E4617463D4802
:104E1000006800F4E060B0F5A06F0FD006DCB0F5DC
:104E2000407F0DD0B0F5806F0BD108E0B0F5C06FBA
:104E300003D0B0F5E06F04D100BF00BF00BF00BFDA
:104E400004E04FF4A06000F061F800BF00BF00BFB5
:104E50002C480068C0F30220044620463246BC4677
:104E60000146C1F1070ABAF1040F02D94FF0040A52
:104E700001E0C1F1070AD14601F1040ABAF1070FB6
:104E800002D24FF0000A01E0A1F1030AD0464FF030
:104E9000010A0AFA09FAAAF1010A0AEA020A0AFA56
:104EA00008FA4FF0010B0BFA08FBABF1010B0BEA10
:104EB0000C0B4AEA0B0500BF1946284600290BDAFD
:104EC00002074FEA12680F4A0C3201F00F0CACF1E6
:104ED000040C02F80C8005E002074FEA126C0A4A43
:104EE00002F801C000BF00BF03F01F01012088408D
:104EF0005909890001F1E021C1F8000100BFBDE8B6
:104F0000F08F00000CED00E000E400E002490143F6
:104F1000024A1160704700000000FA050CED00E045
:104F2000034A0A400243034B1A60BFF34F8F704796
:104F300080FFFF1F08ED00E010B5044600F036FECC
:104F400042F210710A4800F025FF00F0BFFA09484C
:104F50000078204307490870002007490870074976
:104F6000087001200649087000200649087010BD2D
:104F700000540040C4000020C5000020C8000020EC
:104F8000C7000020C600002010B50748007808B907
:104F9000012010BD4FF480610448FBF72CF900F0AC
:104FA000F7FB0020F5E70000BC00002043090020CB
:104FB00010B51921014800F04DFF10BD20A70008D1
:104FC0000FB408B503A8009000990298FBF7EAFD1A
:104FD0000020009001B05DF814FB10B50446204697
:104FE000FDF74CFE10BD000010B520220621094837
:104FF000FEF755FA082206210648FEF750FA042269
:1050000006210448FEF74BFA012206210148FEF76B
:1050100046FA10BD0060024010B510220621094872
:10502000FEF7FFF9042206210648FEF7FAF90222EC
:1050300006210448FEF7F5F9802206210148FEF713
:10504000F0F910BD0060024010B510220621094899
:10505000FEF706FA042206210648FEF701FA0222AC
:1050600006210448FEF7FCF9802206210148FEF7DC
:10507000F7F910BD0060024010B53848007810B94B
:10508000FFF7B2FF10BD082206213548FEF726FAC9
:1050900001280DD0042206213148FEF71FFA01280D
:1050A00006D0012206212E48FEF718FA01281CD14D
:1050B0002C4801782C48007800F098FB2B4909789F
:1050C00040EA0104082206212548FEF7E8F90422F7
:1050D00006212348FEF7E3F9012206212048FEF7C6
:1050E000DEF92046FFF728FFCCE7202206211C48E6
:1050F000FEF7F4F901282FD1202206211848FEF7E7
:10510000CEF900F05DFD68B11648017816480078C8
:1051100000F06CFB1549097840EA01042046FFF7CE
:105120000BFFAFE712480078012810D100F0E4FC33
:1051300090B10C4801780C48007800F057FB0B49FF
:10514000097840EA01042046FFF7F6FE04E000205B
:105150000749087000F07EFC00BF93E7C6000020FE
:1051600000600240CA000020C9000020C5000020E5
:10517000C80000202DE9F04780460F4615461C4622
:10518000DDF820901DB114B1B4F5007F02D90120E3
:10519000BDE8F087404600F039FB06460EB13046C8
:1051A000F6E723480770401C854203D02246294673
:1051B000FBF708F806211F48FEF727F820220621F2
:1051C0001C48FEF7C8F8082206211A48FEF7C3F863
:1051D000042206211748FEF7BEF8012206211548D1
:1051E000FEF7B9F8FFF700FF114B00220621114826
:1051F000FEF7A0FA621C06210E48FEF7CFFC4FF422
:1052000080510D48FFF71EFB4FF400610A48FFF77D
:1052100011FBB9F1000F02D0FFF716FF01E0FFF715
:10522000FBFE06210348FEF700F80020B0E700006F
:10523000440D002000600240005400402DE9F84376
:1052400005460E46174698461548007810B10220CC
:10525000BDE8F883002043463A4631460090284690
:10526000FFF788FF04460CB12046F1E70D4800F037
:105270006BFD68B900F05CFC0B48FFF730FB42F2B5
:105280001071094800F086FD00F020F90320DFE7E7
:10529000202206210548FEF75EF800F091FCD7E7D2
:1052A000C6000020A08601000054004000600240BB
:1052B000F0B504460D461146202901DB7E2900DDAC
:1052C0002021A1F12006F1B200201BE02618802E3B
:1052D00000D3F0BD33B101EB41060C4F07EB46069E
:1052E000365C07E001EB4106084F07EB4606365CEB
:1052F000F643F6B204EB000C054F07EBCC077E55E6
:10530000461CF0B20628E1D300BFE2E7889C000803
:1053100043090020F0B504460D461046202801DB65
:105320007E2800DD2020A0F12006F0B2002130E030
:105330006618802E00D3F0BD23B101EB0016174F85
:10534000BE5D05E001EB0016144FBE5DF643F6B2FC
:1053500004EB010C124F07EBCC077E556E1C042E9C
:1053600015D22BB101EB001608360C4FBE5D06E0DE
:1053700001EB00160836094FBE5DF643F6B204EBAA
:10538000010C074F07EBCC0C6F1C0CF807604E1C90
:10539000F1B20829CCD300BFCDE70000B09E0008D1
:1053A000430900202DE9F04104460D469046164879
:1053B000007818B1802C01D2202D02D30120BDE845
:1053C000F081EE0805F0070101208840C7B2B8F16E
:1053D000000F09D00D4800EBC400805D38430B4935
:1053E00001EBC401885508E0084800EBC400805D6B
:1053F000B843064901EBC40188552946284600F008
:10540000CDF90020DBE70000BC00002043090020AC
:105410002DE9F04706460C4617461D46DDF820A04C
:105420001748007838B1802E05D2202C03D2BE4216
:1054300001DCAC4202DD0120BDE8F087802F00D303
:105440007F27202D00D31F25A04610E0B14608E09D
:10545000524641464846FFF7A5FF09F1010000F01A
:10546000FF09B945F4DD08F1010000F0FF08A84587
:10547000ECDD2946204600F091F90020DCE7000031
:10548000BC00002030B5034600240C7014700020CE
:1054900018E0012484401C4094B10870107002E0B0
:1054A0001478641C14701478641C042C07D21478CB
:1054B000641C012505FA04F41C40002CF0D130BD19
:1054C000441CE0B20428E4D300BFF8E710B5002183
:1054D0003148FFF7AFF906213048FDF796FE4FF44B
:1054E0004073002201212E48FFF7B5F84FF44073B6
:1054F000022200212A48FFF7D5F84FF440712848CE
:10550000FFF75FF800240BE04FF480712448FFF7A9
:1055100056F84FF480712248FFF753F8601CC4B26C
:10552000092CF1D34FF480711D48FFF74AF84FF46E
:1055300000711B48FFF743F84FF400711848FFF75C
:1055400040F84FF4407204211548FFF709F84FF472
:105550004073012202211248FFF77DF84FF4407397
:10556000022201210E48FFF79DF80B48FFF736F99C
:1055700000220C490848FFF7BFF8722300221146A9
:105580000548FFF799F90448FFF764F94FF4806183
:105590000148FFF7A8F810BD005400400060024029
:1055A00000040240801A060010B500F0C1FA02485B
:1055B000FFF714F9002010BD0054004000B589B079
:1055C00040F6014000F0D6FF41F2150000F0D2FF96
:1055D00040F6154000F0CEFF4FF4407204212B48F6
:1055E000FEF7BEFF4FF44073012202212748FFF768
:1055F00032F84FF44073022201212448FFF752F899
:105600002348FFF7EBF8002222492148FFF774F8FE
:105610007223002211461E48FFF74EF91C48FFF77F
:1056200019F94FF480611A48FFF75DF806211A480E
:10563000FDF73EFE6846FEF745FA40200690174803
:105640000290002003901248103000900120019039
:1056500000200490012007904FF4403008906A46E3
:1056600006210D48FEF782F906210B48FDF700FEE2
:10567000012206210848FDF7E8FD00220221112041
:10568000FFF7C0FB002009B000BD0000000402408D
:1056900000540040801A060000600240440D0020C3
:1056A00010B500F041F80021194803F011FD04463F
:1056B0000CB1012010BD7821154803F001FD04460E
:1056C0000CB10120F6E7124803F0EEFA04460CB1E3
:1056D0000120EFE7FFF76CFC04460CB10120E9E77D
:1056E00001200C49087000200B4908700B49087014
:1056F0000B4908700B4908704FF4806104483B3037
:10570000FAF779FD00F044F800F076FAD2E70000ED
:1057100008090020BC000020C6000020C7000020AF
:10572000C8000020C400002010B540F23C410F48E2
:10573000FAF761FD0E480D4908600E4848600E48B2
:1057400088600E48C86008610D4848610B48886150
:10575000C8610C4808620948486288620948C86202
:10576000094848630948086310BD00000809002083
:10577000BD550008A95500083D520008DD57000836
:10578000E1570008E7570008DB4F0008C14F000849
:105790000F20014908707047C400002070B5024610
:1057A000202A00D370BD202900D31F218A4200DDAA
:1057B000F8E7D408CB08204609E001258540EDB282
:1057C000054E36783543044E3570451CE8B2984294
:1057D000F3DD00BFE6E70000C400002000207047B2
:1057E00002460020704701460020704710B502466F
:1057F0000B460020114605E001248C40E4B2204312
:105800004C1CE1B29942F7DD10BD000070B50546B1
:1058100042F21074782D01D0012070BD40F2016178
:105820002D48FFF730F8012801D1FFF74FFE00BFE8
:1058300040F201612848FFF726F8012802D1601ED6
:10584000041EF5D18CB9FFF741FE42F2107400BF7F
:1058500040F201612048FFF716F8012802D1601ECE
:10586000041EF5D10CB90320D7E71B48FFF732F827
:105870001A4A4FF4A061184800F07AFA18B9FFF7F5
:1058800025FE0320C9E76FF0010229461248FFF701
:1058900009F8124800F036FA58B90F48FFF71FF818
:1058A00042F210710C4800F075FAFFF70FFE01206C
:1058B000B3E740F201510848FEF7D1FF074A40F232
:1058C0000751054800F054FA18B9FFF7FFFD03200F
:1058D000A3E70020A1E7000000540040A0860100DB
:1058E0002122064B1A7000225A707F229A702222BF
:1058F000DA701A461071517170470000BD00002027
:10590000F0B503460C460020194613E000220DE0D6
:105910000A4D05EBC2056D5C094E357035462E7893
:10592000451C084F7E55A8B2551CEAB2802AEFD319
:105930004D1CE9B2A142E9DDF0BD000043090020A1
:10594000BD000020440D00200FB470B5A2B0054684
:105950000E4629A80190802102A8019B289AFBF7F6
:1059600029F9044600200190002C04DA204622B0D8
:1059700070BC5DF814FB0120082302AA3146009098
:10598000284600F007F810B14FF0FF30EFE720464F
:10599000EDE700002DE9FC5F82460C4615461E46E9
:1059A000002000902A48007828B125B1BAF1800F74
:1059B00001D2202C02D30120BDE8FC9F04F0070097
:1059C00008B10120F8E7082E02D10627B04606E00C
:1059D000102E02D10827B04601E00120ECE704EBCD
:1059E0000800202801D90120E6E74FEAD40BD14670
:1059F0001AE009EB0700802800D918E0082E06D12C
:105A00002A78594648460C9BFFF752FC05E02A7855
:105A1000594648460C9BFFF77DFC09EB070000F058
:105A2000FF096D1C0120009028780028E1D100BFFB
:105A3000009808B90120BFE704EB0800401EC0B27F
:105A4000019020460199FFF7A9FE0020B4E700006D
:105A5000BC0000201CB51548007828B90020144966
:105A60000870144908701CBD6A4601A90F480078E7
:105A7000FFF708FD9DF800109DF80400FFF7B6FE43
:105A800004460A480078A043084908709DF80010B1
:105A90009DF8040000F010F828B10449097844EAA0
:105AA0000100FFF749FA00BFDDE70000C500002054
:105AB000C8000020C600002038B505460C460A483C
:105AC00005700A48047001200949087021462846DB
:105AD000FFF706FF01200623064A002100907820E8
